{"contracts/MedicalSupplyChain.sol":{"MedicalSupplyChain":{"abi":[{"inputs":[],"stateMutability":"nonpayable","type":"constructor"},{"inputs":[],"name":"InvalidTransfer","type":"error"},{"inputs":[],"name":"NotAuthorizedManufacturer","type":"error"},{"inputs":[],"name":"NotCurrentHolder","type":"error"},{"inputs":[],"name":"OnlyOwner","type":"error"},{"inputs":[],"name":"ProductNotFound","type":"error"},{"anonymous":false,"inputs":[{"indexed":true,"internalType":"uint32","name":"productId","type":"uint32"},{"indexed":true,"internalType":"address","name":"from","type":"address"},{"indexed":true,"internalType":"address","name":"to","type":"address"},{"indexed":false,"internalType":"string","name":"location","type":"string"}],"name":"CustodyTransferred","type":"event"},{"anonymous":false,"inputs":[{"indexed":true,"internalType":"address","name":"manufacturer","type":"address"},{"indexed":false,"internalType":"bool","name":"authorized","type":"bool"}],"name":"ManufacturerAuthorized","type":"event"},{"anonymous":false,"inputs":[{"indexed":true,"internalType":"uint32","name":"productId","type":"uint32"},{"indexed":true,"internalType":"address","name":"manufacturer","type":"address"},{"indexed":false,"internalType":"string","name":"name","type":"string"},{"indexed":false,"internalType":"string","name":"batchNumber","type":"string"}],"name":"ProductRegistered","type":"event"},{"inputs":[{"internalType":"address","name":"manufacturer","type":"address"},{"internalType":"bool","name":"authorized","type":"bool"}],"name":"authorizeManufacturer","outputs":[],"stateMutability":"nonpayable","type":"function"},{"inputs":[{"internalType":"address","name":"","type":"address"}],"name":"authorizedManufacturers","outputs":[{"internalType":"bool","name":"","type":"bool"}],"stateMutability":"view","type":"function"},{"inputs":[],"name":"getNextProductId","outputs":[{"internalType":"uint32","name":"","type":"uint32"}],"stateMutability":"view","type":"function"},{"inputs":[],"name":"getOwner","outputs":[{"internalType":"address","name":"","type":"address"}],"stateMutability":"view","type":"function"},{"inputs":[{"internalType":"address","name":"manufacturer","type":"address"}],"name":"getProductsByManufacturer","outputs":[{"internalType":"uint32[]","name":"","type":"uint32[]"}],"stateMutability":"view","type":"function"},{"inputs":[{"internalType":"uint32","name":"productId","type":"uint32"}],"name":"getTransferCount","outputs":[{"internalType":"uint256","name":"","type":"uint256"}],"stateMutability":"view","type":"function"},{"inputs":[{"internalType":"uint32","name":"productId","type":"uint32"}],"name":"getTransferHistory","outputs":[{"components":[{"internalType":"uint32","name":"productId","type":"uint32"},{"internalType":"address","name":"from","type":"address"},{"internalType":"address","name":"to","type":"address"},{"internalType":"uint64","name":"timestamp","type":"uint64"},{"internalType":"string","name":"location","type":"string"},{"internalType":"bool","name":"verified","type":"bool"}],"internalType":"struct MedicalSupplyChain.Transfer[]","name":"","type":"tuple[]"}],"stateMutability":"view","type":"function"},{"inputs":[{"internalType":"address","name":"account","type":"address"}],"name":"isAuthorizedManufacturer","outputs":[{"internalType":"bool","name":"","type":"bool"}],"stateMutability":"view","type":"function"},{"inputs":[],"name":"nextProductId","outputs":[{"internalType":"uint32","name":"","type":"uint32"}],"stateMutability":"view","type":"function"},{"inputs":[],"name":"owner","outputs":[{"internalType":"address","name":"","type":"address"}],"stateMutability":"view","type":"function"},{"inputs":[{"internalType":"uint32","name":"productId","type":"uint32"}],"name":"productExistsCheck","outputs":[{"internalType":"bool","name":"","type":"bool"}],"stateMutability":"view","type":"function"},{"inputs":[{"internalType":"uint32","name":"","type":"uint32"}],"name":"products","outputs":[{"internalType":"uint32","name":"id","type":"uint32"},{"internalType":"string","name":"name","type":"string"},{"internalType":"string","name":"batchNumber","type":"string"},{"internalType":"address","name":"manufacturer","type":"address"},{"internalType":"string","name":"manufacturerName","type":"string"},{"internalType":"uint32","name":"quantity","type":"uint32"},{"internalType":"uint64","name":"mfgDate","type":"uint64"},{"internalType":"uint64","name":"expiryDate","type":"uint64"},{"internalType":"string","name":"category","type":"string"},{"internalType":"address","name":"currentHolder","type":"address"},{"internalType":"bool","name":"isAuthentic","type":"bool"},{"internalType":"uint64","name":"createdAt","type":"uint64"}],"stateMutability":"view","type":"function"},{"inputs":[{"internalType":"string","name":"name","type":"string"},{"internalType":"string","name":"batchNumber","type":"string"},{"internalType":"string","name":"manufacturerName","type":"string"},{"internalType":"uint32","name":"quantity","type":"uint32"},{"internalType":"uint64","name":"mfgDate","type":"uint64"},{"internalType":"uint64","name":"expiryDate","type":"uint64"},{"internalType":"string","name":"category","type":"string"}],"name":"registerProduct","outputs":[{"internalType":"uint32","name":"","type":"uint32"}],"stateMutability":"nonpayable","type":"function"},{"inputs":[{"internalType":"uint32","name":"productId","type":"uint32"},{"internalType":"address","name":"to","type":"address"},{"internalType":"string","name":"location","type":"string"}],"name":"transferCustody","outputs":[],"stateMutability":"nonpayable","type":"function"},{"inputs":[{"internalType":"uint32","name":"","type":"uint32"},{"internalType":"uint256","name":"","type":"uint256"}],"name":"transferHistory","outputs":[{"internalType":"uint32","name":"productId","type":"uint32"},{"internalType":"address","name":"from","type":"address"},{"internalType":"address","name":"to","type":"address"},{"internalType":"uint64","name":"timestamp","type":"uint64"},{"internalType":"string","name":"location","type":"string"},{"internalType":"bool","name":"verified","type":"bool"}],"stateMutability":"view","type":"function"},{"inputs":[{"internalType":"uint32","name":"productId","type":"uint32"}],"name":"verifyProduct","outputs":[{"components":[{"internalType":"uint32","name":"id","type":"uint32"},{"internalType":"string","name":"name","type":"string"},{"internalType":"string","name":"batchNumber","type":"string"},{"internalType":"address","name":"manufacturer","type":"address"},{"internalType":"string","name":"manufacturerName","type":"string"},{"internalType":"uint32","name":"quantity","type":"uint32"},{"internalType":"uint64","name":"mfgDate","type":"uint64"},{"internalType":"uint64","name":"expiryDate","type":"uint64"},{"internalType":"string","name":"category","type":"string"},{"internalType":"address","name":"currentHolder","type":"address"},{"internalType":"bool","name":"isAuthentic","type":"bool"},{"internalType":"uint64","name":"createdAt","type":"uint64"}],"internalType":"struct MedicalSupplyChain.Product","name":"","type":"tuple"}],"stateMutability":"view","type":"function"}],"evm":{"bytecode":{"linkReferences":{},"object":"608060405234801561001057600080fd5b506000805463ffffffff60a01b19339081166001600160c01b031990921691909117600160a01b1782558152600360205260409020805460ff19166001179055611b228061005f6000396000f3fe608060405234801561001057600080fd5b50600436106101005760003560e01c8063849df74a11610097578063a8d5c45a11610066578063a8d5c45a14610291578063ade74471146102c5578063bf712fd6146102d8578063d078477b1461030357600080fd5b8063849df74a1461020e578063893d20e81461022e5780638da5cb5b14610253578063a8b9401c1461026657600080fd5b8063478e8722116100d3578063478e8722146101af5780634d040f09146101c25780634de91a63146101d75780637dc260fc146101ee57600080fd5b806317f87c5b14610105578063228663341461014657806324b0424514610166578063468c651214610189575b600080fd5b6101316101133660046112ab565b6001600160a01b031660009081526003602052604090205460ff1690565b60405190151581526020015b60405180910390f35b6101596101543660046112e1565b610328565b60405161013d9190611342565b6101316101743660046112ab565b60036020526000908152604090205460ff1681565b600054600160a01b900463ffffffff165b60405163ffffffff909116815260200161013d565b61019a6101bd3660046114bc565b610491565b6101d56101d036600461159a565b610736565b005b60005461019a90600160a01b900463ffffffff1681565b6102016101fc3660046112e1565b610935565b60405161013d91906115f7565b61022161021c3660046112ab565b610cdf565b60405161013d919061173d565b6000546001600160a01b03165b6040516001600160a01b03909116815260200161013d565b60005461023b906001600160a01b031681565b6101316102743660046112e1565b63ffffffff90811660009081526001602052604090205416151590565b6102b761029f3660046112e1565b63ffffffff1660009081526002602052604090205490565b60405190815260200161013d565b6101d56102d3366004611787565b610e3c565b6102eb6102e63660046112e1565b610ec6565b60405161013d9c9b9a999897969594939291906117c3565b61031661031136600461189c565b61118d565b60405161013d969594939291906118c6565b63ffffffff81166000908152600260209081526040808320805482518185028101850190935280835260609492939192909184015b828210156104865760008481526020908190206040805160c08101825260048602909201805463ffffffff8116845264010000000090046001600160a01b0390811694840194909452600181015493841691830191909152600160a01b9092046001600160401b031660608201526002820180549192916080840191906103e390611922565b80601f016020809104026020016040519081016040528092919081815260200182805461040f90611922565b801561045c5780601f106104315761010080835404028352916020019161045c565b820191906000526020600020905b81548152906001019060200180831161043f57829003601f168201915b50505091835250506003919091015460ff161515602091820152908252600192909201910161035d565b505050509050919050565b3360009081526003602052604081205460ff166104c1576040516329ab58d760e11b815260040160405180910390fd5b600080546040805161018081018252600160a01b90920463ffffffff90811680845260208085018e81528585018e90523360608701819052608087018e90528c851660a08801526001600160401b038c811660c08901528b811660e089015261010088018b9052610120880191909152600161014088018190524290911661016088015283885291829052939095208451815463ffffffff191693169290921782559151919390919082019061057790826119a5565b506040820151600282019061058c90826119a5565b5060608201516003820180546001600160a01b0319166001600160a01b03909216919091179055608082015160048201906105c790826119a5565b5060a082015160058201805460c085015160e086015163ffffffff9094166bffffffffffffffffffffffff19909216919091176401000000006001600160401b03928316021767ffffffffffffffff60601b1916600160601b9190931602919091179055610100820151600682019061064090826119a5565b506101208201516007919091018054610140840151610160909401516001600160a01b039093166001600160a81b031990911617600160a01b93151584021767ffffffffffffffff60a81b1916600160a81b6001600160401b0390931692909202919091179055600080549190910463ffffffff169060146106c183611a64565b91906101000a81548163ffffffff021916908363ffffffff16021790555050336001600160a01b03168163ffffffff167f17f586a624220aee0c55318b6264f843066378a5c315ac5de0c55111e1d00e988b8b604051610722929190611a95565b60405180910390a398975050505050505050565b63ffffffff808416600090815260016020526040812054859216900361076f576040516379de4af560e01b815260040160405180910390fd5b63ffffffff8416600090815260016020526040902060078101546001600160a01b031633146107b157604051630600622360e51b815260040160405180910390fd5b6001600160a01b0384166107d857604051632f35253160e01b815260040160405180910390fd5b6007810180546001600160a01b038087166001600160a01b0319909216821790925563ffffffff8088166000818152600260208181526040808420815160c081018352958652338684019081529186019788526001600160401b0342811660608801908152608088018e8152600160a08a0181905284548082018655948952959097208851600490940201805494518c16640100000000026001600160c01b03199095169390991692909217929092178755965191860180549751909116600160a01b026001600160e01b0319909716919097161794909417909455925190918201906108c590826119a5565b5060a091909101516003909101805460ff19169115159190911790556040516001600160a01b03851690339063ffffffff8816907ffca29a874b0af156b8acb6e6e54c0047653006cbfc9dbe499642bbaee0c0c5a590610926908890611ac3565b60405180910390a45050505050565b604080516101808101825260008082526060602083018190529282018390528282018190526080820183905260a0820181905260c0820181905260e082018190526101008201929092526101208101829052610140810182905261016081019190915263ffffffff80831660009081526001602052604081205484921690036109d1576040516379de4af560e01b815260040160405180910390fd5b63ffffffff8084166000908152600160208181526040928390208351610180810190945280549094168352908301805492939291840191610a1190611922565b80601f0160208091040260200160405190810160405280929190818152602001828054610a3d90611922565b8015610a8a5780601f10610a5f57610100808354040283529160200191610a8a565b820191906000526020600020905b815481529060010190602001808311610a6d57829003601f168201915b50505050508152602001600282018054610aa390611922565b80601f0160208091040260200160405190810160405280929190818152602001828054610acf90611922565b8015610b1c5780601f10610af157610100808354040283529160200191610b1c565b820191906000526020600020905b815481529060010190602001808311610aff57829003601f168201915b505050918352505060038201546001600160a01b03166020820152600482018054604090920191610b4c90611922565b80601f0160208091040260200160405190810160405280929190818152602001828054610b7890611922565b8015610bc55780601f10610b9a57610100808354040283529160200191610bc5565b820191906000526020600020905b815481529060010190602001808311610ba857829003601f168201915b5050509183525050600582015463ffffffff811660208301526001600160401b03640100000000820481166040840152600160601b909104166060820152600682018054608090920191610c1890611922565b80601f0160208091040260200160405190810160405280929190818152602001828054610c4490611922565b8015610c915780601f10610c6657610100808354040283529160200191610c91565b820191906000526020600020905b815481529060010190602001808311610c7457829003601f168201915b5050509183525050600791909101546001600160a01b0381166020830152600160a01b810460ff1615156040830152600160a81b90046001600160401b031660609091015291505b50919050565b6060600060015b60005463ffffffff600160a01b90910481169082161015610d4c5763ffffffff81166000908152600160205260409020600301546001600160a01b03808616911603610d3a5781610d3681611a64565b9250505b80610d4481611a64565b915050610ce6565b5060008163ffffffff166001600160401b03811115610d6d57610d6d611403565b604051908082528060200260200182016040528015610d96578160200160208202803683370190505b509050600060015b60005463ffffffff600160a01b90910481169082161015610e325763ffffffff81166000908152600160205260409020600301546001600160a01b03808816911603610e205780838363ffffffff1681518110610dfd57610dfd611ad6565b63ffffffff9092166020928302919091019091015281610e1c81611a64565b9250505b80610e2a81611a64565b915050610d9e565b5090949350505050565b6000546001600160a01b03163314610e6757604051635fc483c560e01b815260040160405180910390fd5b6001600160a01b038216600081815260036020908152604091829020805460ff191685151590811790915591519182527f4de5f21892a7d012c88f5fe87d76dad0fc48b68e82665b3af43114f4cf12e347910160405180910390a25050565b60016020819052600091825260409091208054918101805463ffffffff90931692610ef090611922565b80601f0160208091040260200160405190810160405280929190818152602001828054610f1c90611922565b8015610f695780601f10610f3e57610100808354040283529160200191610f69565b820191906000526020600020905b815481529060010190602001808311610f4c57829003601f168201915b505050505090806002018054610f7e90611922565b80601f0160208091040260200160405190810160405280929190818152602001828054610faa90611922565b8015610ff75780601f10610fcc57610100808354040283529160200191610ff7565b820191906000526020600020905b815481529060010190602001808311610fda57829003601f168201915b505050600384015460048501805494956001600160a01b0390921694919350915061102190611922565b80601f016020809104026020016040519081016040528092919081815260200182805461104d90611922565b801561109a5780601f1061106f5761010080835404028352916020019161109a565b820191906000526020600020905b81548152906001019060200180831161107d57829003601f168201915b5050506005840154600685018054949563ffffffff8316956001600160401b03640100000000850481169650600160601b9094049093169350916110dd90611922565b80601f016020809104026020016040519081016040528092919081815260200182805461110990611922565b80156111565780601f1061112b57610100808354040283529160200191611156565b820191906000526020600020905b81548152906001019060200180831161113957829003601f168201915b505050600790930154919250506001600160a01b0381169060ff600160a01b820416906001600160401b03600160a81b909104168c565b600260205281600052604060002081815481106111a957600080fd5b600091825260209091206004909102018054600182015460028301805463ffffffff841696506401000000009093046001600160a01b039081169550821693600160a01b9092046001600160401b03169261120390611922565b80601f016020809104026020016040519081016040528092919081815260200182805461122f90611922565b801561127c5780601f106112515761010080835404028352916020019161127c565b820191906000526020600020905b81548152906001019060200180831161125f57829003601f168201915b5050506003909301549192505060ff1686565b80356001600160a01b03811681146112a657600080fd5b919050565b6000602082840312156112bd57600080fd5b6112c68261128f565b9392505050565b803563ffffffff811681146112a657600080fd5b6000602082840312156112f357600080fd5b6112c6826112cd565b6000815180845260005b8181101561132257602081850181015186830182015201611306565b506000602082860101526020601f19601f83011685010191505092915050565b60006020808301818452808551808352604092508286019150828160051b87010184880160005b838110156113f557888303603f190185528151805163ffffffff168452878101516001600160a01b03908116898601528782015116878501526060808201516001600160401b03169085015260808082015160c082870181905291906113d1838801826112fc565b60a09485015115159790940196909652505094870194925090860190600101611369565b509098975050505050505050565b634e487b7160e01b600052604160045260246000fd5b600082601f83011261142a57600080fd5b81356001600160401b038082111561144457611444611403565b604051601f8301601f19908116603f0116810190828211818310171561146c5761146c611403565b8160405283815286602085880101111561148557600080fd5b836020870160208301376000602085830101528094505050505092915050565b80356001600160401b03811681146112a657600080fd5b600080600080600080600060e0888a0312156114d757600080fd5b87356001600160401b03808211156114ee57600080fd5b6114fa8b838c01611419565b985060208a013591508082111561151057600080fd5b61151c8b838c01611419565b975060408a013591508082111561153257600080fd5b61153e8b838c01611419565b965061154c60608b016112cd565b955061155a60808b016114a5565b945061156860a08b016114a5565b935060c08a013591508082111561157e57600080fd5b5061158b8a828b01611419565b91505092959891949750929550565b6000806000606084860312156115af57600080fd5b6115b8846112cd565b92506115c66020850161128f565b915060408401356001600160401b038111156115e157600080fd5b6115ed86828701611419565b9150509250925092565b6020815261160e60208201835163ffffffff169052565b6000602083015161018080604085015261162c6101a08501836112fc565b91506040850151601f198086850301606087015261164a84836112fc565b93506060870151915061166860808701836001600160a01b03169052565b60808701519150808685030160a087015261168384836112fc565b935060a0870151915061169e60c087018363ffffffff169052565b60c08701516001600160401b03811660e0880152915060e087015191506101006116d2818801846001600160401b03169052565b808801519250506101208187860301818801526116ef85846112fc565b94508088015192505050610140611710818701836001600160a01b03169052565b86015190506101606117258682018315159052565b8601516001600160401b038116838701529050610e32565b6020808252825182820181905260009190848201906040850190845b8181101561177b57835163ffffffff1683529284019291840191600101611759565b50909695505050505050565b6000806040838503121561179a57600080fd5b6117a38361128f565b9150602083013580151581146117b857600080fd5b809150509250929050565b600061018063ffffffff8f1683528060208401526117e38184018f6112fc565b905082810360408401526117f7818e6112fc565b6001600160a01b038d1660608501528381036080850152905061181a818c6112fc565b63ffffffff8b1660a085015290506001600160401b03891660c08401526001600160401b03881660e084015282810361010084015261185981886112fc565b9150506118726101208301866001600160a01b03169052565b8315156101408301526001600160401b0383166101608301529d9c50505050505050505050505050565b600080604083850312156118af57600080fd5b6118b8836112cd565b946020939093013593505050565b63ffffffff871681526001600160a01b038681166020830152851660408201526001600160401b038416606082015260c06080820181905260009061190d908301856112fc565b905082151560a0830152979650505050505050565b600181811c9082168061193657607f821691505b602082108103610cd957634e487b7160e01b600052602260045260246000fd5b601f8211156119a057600081815260208120601f850160051c8101602086101561197d5750805b601f850160051c820191505b8181101561199c57828155600101611989565b5050505b505050565b81516001600160401b038111156119be576119be611403565b6119d2816119cc8454611922565b84611956565b602080601f831160018114611a0757600084156119ef5750858301515b600019600386901b1c1916600185901b17855561199c565b600085815260208120601f198616915b82811015611a3657888601518255948401946001909101908401611a17565b5085821015611a545787850151600019600388901b60f8161c191681555b5050505050600190811b01905550565b600063ffffffff808316818103611a8b57634e487b7160e01b600052601160045260246000fd5b6001019392505050565b604081526000611aa860408301856112fc565b8281036020840152611aba81856112fc565b95945050505050565b6020815260006112c660208301846112fc565b634e487b7160e01b600052603260045260246000fdfea26469706673582212201d8e5c704817651a24709f1bb9d494efb396cd05aa0976cf7eb0c9a222c2f82964736f6c63430008140033","opcodes":"PUSH1 0x80 PUSH1 0x40 MSTORE CALLVALUE DUP1 ISZERO PUSH2 0x10 JUMPI PUSH1 0x0 DUP1 REVERT JUMPDEST POP PUSH1 0x0 DUP1 SLOAD PUSH4 0xFFFFFFFF PUSH1 0xA0 SHL NOT CALLER SWAP1 DUP2 AND PUSH1 0x1 PUSH1 0x1 PUSH1 0xC0 SHL SUB NOT SWAP1 SWAP3 AND SWAP2 SWAP1 SWAP2 OR PUSH1 0x1 PUSH1 0xA0 SHL OR DUP3 SSTORE DUP2 MSTORE PUSH1 0x3 PUSH1 0x20 MSTORE PUSH1 0x40 SWAP1 KECCAK256 DUP1 SLOAD PUSH1 0xFF NOT AND PUSH1 0x1 OR SWAP1 SSTORE PUSH2 0x1B22 DUP1 PUSH2 0x5F PUSH1 0x0 CODECOPY PUSH1 0x0 RETURN INVALID PUSH1 0x80 PUSH1 0x40 MSTORE CALLVALUE DUP1 ISZERO PUSH2 0x10 JUMPI PUSH1 0x0 DUP1 REVERT JUMPDEST POP PUSH1 0x4 CALLDATASIZE LT PUSH2 0x100 JUMPI PUSH1 0x0 CALLDATALOAD PUSH1 0xE0 SHR DUP1 PUSH4 0x849DF74A GT PUSH2 0x97 JUMPI DUP1 PUSH4 0xA8D5C45A GT PUSH2 0x66 JUMPI DUP1 PUSH4 0xA8D5C45A EQ PUSH2 0x291 JUMPI DUP1 PUSH4 0xADE74471 EQ PUSH2 0x2C5 JUMPI DUP1 PUSH4 0xBF712FD6 EQ PUSH2 0x2D8 JUMPI DUP1 PUSH4 0xD078477B EQ PUSH2 0x303 JUMPI PUSH1 0x0 DUP1 REVERT JUMPDEST DUP1 PUSH4 0x849DF74A EQ PUSH2 0x20E JUMPI DUP1 PUSH4 0x893D20E8 EQ PUSH2 0x22E JUMPI DUP1 PUSH4 0x8DA5CB5B EQ PUSH2 0x253 JUMPI DUP1 PUSH4 0xA8B9401C EQ PUSH2 0x266 JUMPI PUSH1 0x0 DUP1 REVERT JUMPDEST DUP1 PUSH4 0x478E8722 GT PUSH2 0xD3 JUMPI DUP1 PUSH4 0x478E8722 EQ PUSH2 0x1AF JUMPI DUP1 PUSH4 0x4D040F09 EQ PUSH2 0x1C2 JUMPI DUP1 PUSH4 0x4DE91A63 EQ PUSH2 0x1D7 JUMPI DUP1 PUSH4 0x7DC260FC EQ PUSH2 0x1EE JUMPI PUSH1 0x0 DUP1 REVERT JUMPDEST DUP1 PUSH4 0x17F87C5B EQ PUSH2 0x105 JUMPI DUP1 PUSH4 0x22866334 EQ PUSH2 0x146 JUMPI DUP1 PUSH4 0x24B04245 EQ PUSH2 0x166 JUMPI DUP1 PUSH4 0x468C6512 EQ PUSH2 0x189 JUMPI JUMPDEST PUSH1 0x0 DUP1 REVERT JUMPDEST PUSH2 0x131 PUSH2 0x113 CALLDATASIZE PUSH1 0x4 PUSH2 0x12AB JUMP JUMPDEST PUSH1 0x1 PUSH1 0x1 PUSH1 0xA0 SHL SUB AND PUSH1 0x0 SWAP1 DUP2 MSTORE PUSH1 0x3 PUSH1 0x20 MSTORE PUSH1 0x40 SWAP1 KECCAK256 SLOAD PUSH1 0xFF AND SWAP1 JUMP JUMPDEST PUSH1 0x40 MLOAD SWAP1 ISZERO ISZERO DUP2 MSTORE PUSH1 0x20 ADD JUMPDEST PUSH1 0x40 MLOAD DUP1 SWAP2 SUB SWAP1 RETURN JUMPDEST PUSH2 0x159 PUSH2 0x154 CALLDATASIZE PUSH1 0x4 PUSH2 0x12E1 JUMP JUMPDEST PUSH2 0x328 JUMP JUMPDEST PUSH1 0x40 MLOAD PUSH2 0x13D SWAP2 SWAP1 PUSH2 0x1342 JUMP JUMPDEST PUSH2 0x131 PUSH2 0x174 CALLDATASIZE PUSH1 0x4 PUSH2 0x12AB JUMP JUMPDEST PUSH1 0x3 PUSH1 0x20 MSTORE PUSH1 0x0 SWAP1 DUP2 MSTORE PUSH1 0x40 SWAP1 KECCAK256 SLOAD PUSH1 0xFF AND DUP2 JUMP JUMPDEST PUSH1 0x0 SLOAD PUSH1 0x1 PUSH1 0xA0 SHL SWAP1 DIV PUSH4 0xFFFFFFFF AND JUMPDEST PUSH1 0x40 MLOAD PUSH4 0xFFFFFFFF SWAP1 SWAP2 AND DUP2 MSTORE PUSH1 0x20 ADD PUSH2 0x13D JUMP JUMPDEST PUSH2 0x19A PUSH2 0x1BD CALLDATASIZE PUSH1 0x4 PUSH2 0x14BC JUMP JUMPDEST PUSH2 0x491 JUMP JUMPDEST PUSH2 0x1D5 PUSH2 0x1D0 CALLDATASIZE PUSH1 0x4 PUSH2 0x159A JUMP JUMPDEST PUSH2 0x736 JUMP JUMPDEST STOP JUMPDEST PUSH1 0x0 SLOAD PUSH2 0x19A SWAP1 PUSH1 0x1 PUSH1 0xA0 SHL SWAP1 DIV PUSH4 0xFFFFFFFF AND DUP2 JUMP JUMPDEST PUSH2 0x201 PUSH2 0x1FC CALLDATASIZE PUSH1 0x4 PUSH2 0x12E1 JUMP JUMPDEST PUSH2 0x935 JUMP JUMPDEST PUSH1 0x40 MLOAD PUSH2 0x13D SWAP2 SWAP1 PUSH2 0x15F7 JUMP JUMPDEST PUSH2 0x221 PUSH2 0x21C CALLDATASIZE PUSH1 0x4 PUSH2 0x12AB JUMP JUMPDEST PUSH2 0xCDF JUMP JUMPDEST PUSH1 0x40 MLOAD PUSH2 0x13D SWAP2 SWAP1 PUSH2 0x173D JUMP JUMPDEST PUSH1 0x0 SLOAD PUSH1 0x1 PUSH1 0x1 PUSH1 0xA0 SHL SUB AND JUMPDEST PUSH1 0x40 MLOAD PUSH1 0x1 PUSH1 0x1 PUSH1 0xA0 SHL SUB SWAP1 SWAP2 AND DUP2 MSTORE PUSH1 0x20 ADD PUSH2 0x13D JUMP JUMPDEST PUSH1 0x0 SLOAD PUSH2 0x23B SWAP1 PUSH1 0x1 PUSH1 0x1 PUSH1 0xA0 SHL SUB AND DUP2 JUMP JUMPDEST PUSH2 0x131 PUSH2 0x274 CALLDATASIZE PUSH1 0x4 PUSH2 0x12E1 JUMP JUMPDEST PUSH4 0xFFFFFFFF SWAP1 DUP2 AND PUSH1 0x0 SWAP1 DUP2 MSTORE PUSH1 0x1 PUSH1 0x20 MSTORE PUSH1 0x40 SWAP1 KECCAK256 SLOAD AND ISZERO ISZERO SWAP1 JUMP JUMPDEST PUSH2 0x2B7 PUSH2 0x29F CALLDATASIZE PUSH1 0x4 PUSH2 0x12E1 JUMP JUMPDEST PUSH4 0xFFFFFFFF AND PUSH1 0x0 SWAP1 DUP2 MSTORE PUSH1 0x2 PUSH1 0x20 MSTORE PUSH1 0x40 SWAP1 KECCAK256 SLOAD SWAP1 JUMP JUMPDEST PUSH1 0x40 MLOAD SWAP1 DUP2 MSTORE PUSH1 0x20 ADD PUSH2 0x13D JUMP JUMPDEST PUSH2 0x1D5 PUSH2 0x2D3 CALLDATASIZE PUSH1 0x4 PUSH2 0x1787 JUMP JUMPDEST PUSH2 0xE3C JUMP JUMPDEST PUSH2 0x2EB PUSH2 0x2E6 CALLDATASIZE PUSH1 0x4 PUSH2 0x12E1 JUMP JUMPDEST PUSH2 0xEC6 JUMP JUMPDEST PUSH1 0x40 MLOAD PUSH2 0x13D SWAP13 SWAP12 SWAP11 SWAP10 SWAP9 SWAP8 SWAP7 SWAP6 SWAP5 SWAP4 SWAP3 SWAP2 SWAP1 PUSH2 0x17C3 JUMP JUMPDEST PUSH2 0x316 PUSH2 0x311 CALLDATASIZE PUSH1 0x4 PUSH2 0x189C JUMP JUMPDEST PUSH2 0x118D JUMP JUMPDEST PUSH1 0x40 MLOAD PUSH2 0x13D SWAP7 SWAP6 SWAP5 SWAP4 SWAP3 SWAP2 SWAP1 PUSH2 0x18C6 JUMP JUMPDEST PUSH4 0xFFFFFFFF DUP2 AND PUSH1 0x0 SWAP1 DUP2 MSTORE PUSH1 0x2 PUSH1 0x20 SWAP1 DUP2 MSTORE PUSH1 0x40 DUP1 DUP4 KECCAK256 DUP1 SLOAD DUP3 MLOAD DUP2 DUP6 MUL DUP2 ADD DUP6 ADD SWAP1 SWAP4 MSTORE DUP1 DUP4 MSTORE PUSH1 0x60 SWAP5 SWAP3 SWAP4 SWAP2 SWAP3 SWAP1 SWAP2 DUP5 ADD JUMPDEST DUP3 DUP3 LT ISZERO PUSH2 0x486 JUMPI PUSH1 0x0 DUP5 DUP2 MSTORE PUSH1 0x20 SWAP1 DUP2 SWAP1 KECCAK256 PUSH1 0x40 DUP1 MLOAD PUSH1 0xC0 DUP2 ADD DUP3 MSTORE PUSH1 0x4 DUP7 MUL SWAP1 SWAP3 ADD DUP1 SLOAD PUSH4 0xFFFFFFFF DUP2 AND DUP5 MSTORE PUSH5 0x100000000 SWAP1 DIV PUSH1 0x1 PUSH1 0x1 PUSH1 0xA0 SHL SUB SWAP1 DUP2 AND SWAP5 DUP5 ADD SWAP5 SWAP1 SWAP5 MSTORE PUSH1 0x1 DUP2 ADD SLOAD SWAP4 DUP5 AND SWAP2 DUP4 ADD SWAP2 SWAP1 SWAP2 MSTORE PUSH1 0x1 PUSH1 0xA0 SHL SWAP1 SWAP3 DIV PUSH1 0x1 PUSH1 0x1 PUSH1 0x40 SHL SUB AND PUSH1 0x60 DUP3 ADD MSTORE PUSH1 0x2 DUP3 ADD DUP1 SLOAD SWAP2 SWAP3 SWAP2 PUSH1 0x80 DUP5 ADD SWAP2 SWAP1 PUSH2 0x3E3 SWAP1 PUSH2 0x1922 JUMP JUMPDEST DUP1 PUSH1 0x1F ADD PUSH1 0x20 DUP1 SWAP2 DIV MUL PUSH1 0x20 ADD PUSH1 0x40 MLOAD SWAP1 DUP2 ADD PUSH1 0x40 MSTORE DUP1 SWAP3 SWAP2 SWAP1 DUP2 DUP2 MSTORE PUSH1 0x20 ADD DUP3 DUP1 SLOAD PUSH2 0x40F SWAP1 PUSH2 0x1922 JUMP JUMPDEST DUP1 ISZERO PUSH2 0x45C JUMPI DUP1 PUSH1 0x1F LT PUSH2 0x431 JUMPI PUSH2 0x100 DUP1 DUP4 SLOAD DIV MUL DUP4 MSTORE SWAP2 PUSH1 0x20 ADD SWAP2 PUSH2 0x45C JUMP JUMPDEST DUP3 ADD SWAP2 SWAP1 PUSH1 0x0 MSTORE PUSH1 0x20 PUSH1 0x0 KECCAK256 SWAP1 JUMPDEST DUP2 SLOAD DUP2 MSTORE SWAP1 PUSH1 0x1 ADD SWAP1 PUSH1 0x20 ADD DUP1 DUP4 GT PUSH2 0x43F JUMPI DUP3 SWAP1 SUB PUSH1 0x1F AND DUP3 ADD SWAP2 JUMPDEST POP POP POP SWAP2 DUP4 MSTORE POP POP PUSH1 0x3 SWAP2 SWAP1 SWAP2 ADD SLOAD PUSH1 0xFF AND ISZERO ISZERO PUSH1 0x20 SWAP2 DUP3 ADD MSTORE SWAP1 DUP3 MSTORE PUSH1 0x1 SWAP3 SWAP1 SWAP3 ADD SWAP2 ADD PUSH2 0x35D JUMP JUMPDEST POP POP POP POP SWAP1 POP SWAP2 SWAP1 POP JUMP JUMPDEST CALLER PUSH1 0x0 SWAP1 DUP2 MSTORE PUSH1 0x3 PUSH1 0x20 MSTORE PUSH1 0x40 DUP2 KECCAK256 SLOAD PUSH1 0xFF AND PUSH2 0x4C1 JUMPI PUSH1 0x40 MLOAD PUSH4 0x29AB58D7 PUSH1 0xE1 SHL DUP2 MSTORE PUSH1 0x4 ADD PUSH1 0x40 MLOAD DUP1 SWAP2 SUB SWAP1 REVERT JUMPDEST PUSH1 0x0 DUP1 SLOAD PUSH1 0x40 DUP1 MLOAD PUSH2 0x180 DUP2 ADD DUP3 MSTORE PUSH1 0x1 PUSH1 0xA0 SHL SWAP1 SWAP3 DIV PUSH4 0xFFFFFFFF SWAP1 DUP2 AND DUP1 DUP5 MSTORE PUSH1 0x20 DUP1 DUP6 ADD DUP15 DUP2 MSTORE DUP6 DUP6 ADD DUP15 SWAP1 MSTORE CALLER PUSH1 0x60 DUP8 ADD DUP2 SWAP1 MSTORE PUSH1 0x80 DUP8 ADD DUP15 SWAP1 MSTORE DUP13 DUP6 AND PUSH1 0xA0 DUP9 ADD MSTORE PUSH1 0x1 PUSH1 0x1 PUSH1 0x40 SHL SUB DUP13 DUP2 AND PUSH1 0xC0 DUP10 ADD MSTORE DUP12 DUP2 AND PUSH1 0xE0 DUP10 ADD MSTORE PUSH2 0x100 DUP9 ADD DUP12 SWAP1 MSTORE PUSH2 0x120 DUP9 ADD SWAP2 SWAP1 SWAP2 MSTORE PUSH1 0x1 PUSH2 0x140 DUP9 ADD DUP2 SWAP1 MSTORE TIMESTAMP SWAP1 SWAP2 AND PUSH2 0x160 DUP9 ADD MSTORE DUP4 DUP9 MSTORE SWAP2 DUP3 SWAP1 MSTORE SWAP4 SWAP1 SWAP6 KECCAK256 DUP5 MLOAD DUP2 SLOAD PUSH4 0xFFFFFFFF NOT AND SWAP4 AND SWAP3 SWAP1 SWAP3 OR DUP3 SSTORE SWAP2 MLOAD SWAP2 SWAP4 SWAP1 SWAP2 SWAP1 DUP3 ADD SWAP1 PUSH2 0x577 SWAP1 DUP3 PUSH2 0x19A5 JUMP JUMPDEST POP PUSH1 0x40 DUP3 ADD MLOAD PUSH1 0x2 DUP3 ADD SWAP1 PUSH2 0x58C SWAP1 DUP3 PUSH2 0x19A5 JUMP JUMPDEST POP PUSH1 0x60 DUP3 ADD MLOAD PUSH1 0x3 DUP3 ADD DUP1 SLOAD PUSH1 0x1 PUSH1 0x1 PUSH1 0xA0 SHL SUB NOT AND PUSH1 0x1 PUSH1 0x1 PUSH1 0xA0 SHL SUB SWAP1 SWAP3 AND SWAP2 SWAP1 SWAP2 OR SWAP1 SSTORE PUSH1 0x80 DUP3 ADD MLOAD PUSH1 0x4 DUP3 ADD SWAP1 PUSH2 0x5C7 SWAP1 DUP3 PUSH2 0x19A5 JUMP JUMPDEST POP PUSH1 0xA0 DUP3 ADD MLOAD PUSH1 0x5 DUP3 ADD DUP1 SLOAD PUSH1 0xC0 DUP6 ADD MLOAD PUSH1 0xE0 DUP7 ADD MLOAD PUSH4 0xFFFFFFFF SWAP1 SWAP5 AND PUSH12 0xFFFFFFFFFFFFFFFFFFFFFFFF NOT SWAP1 SWAP3 AND SWAP2 SWAP1 SWAP2 OR PUSH5 0x100000000 PUSH1 0x1 PUSH1 0x1 PUSH1 0x40 SHL SUB SWAP3 DUP4 AND MUL OR PUSH8 0xFFFFFFFFFFFFFFFF PUSH1 0x60 SHL NOT AND PUSH1 0x1 PUSH1 0x60 SHL SWAP2 SWAP1 SWAP4 AND MUL SWAP2 SWAP1 SWAP2 OR SWAP1 SSTORE PUSH2 0x100 DUP3 ADD MLOAD PUSH1 0x6 DUP3 ADD SWAP1 PUSH2 0x640 SWAP1 DUP3 PUSH2 0x19A5 JUMP JUMPDEST POP PUSH2 0x120 DUP3 ADD MLOAD PUSH1 0x7 SWAP2 SWAP1 SWAP2 ADD DUP1 SLOAD PUSH2 0x140 DUP5 ADD MLOAD PUSH2 0x160 SWAP1 SWAP5 ADD MLOAD PUSH1 0x1 PUSH1 0x1 PUSH1 0xA0 SHL SUB SWAP1 SWAP4 AND PUSH1 0x1 PUSH1 0x1 PUSH1 0xA8 SHL SUB NOT SWAP1 SWAP2 AND OR PUSH1 0x1 PUSH1 0xA0 SHL SWAP4 ISZERO ISZERO DUP5 MUL OR PUSH8 0xFFFFFFFFFFFFFFFF PUSH1 0xA8 SHL NOT AND PUSH1 0x1 PUSH1 0xA8 SHL PUSH1 0x1 PUSH1 0x1 PUSH1 0x40 SHL SUB SWAP1 SWAP4 AND SWAP3 SWAP1 SWAP3 MUL SWAP2 SWAP1 SWAP2 OR SWAP1 SSTORE PUSH1 0x0 DUP1 SLOAD SWAP2 SWAP1 SWAP2 DIV PUSH4 0xFFFFFFFF AND SWAP1 PUSH1 0x14 PUSH2 0x6C1 DUP4 PUSH2 0x1A64 JUMP JUMPDEST SWAP2 SWAP1 PUSH2 0x100 EXP DUP2 SLOAD DUP2 PUSH4 0xFFFFFFFF MUL NOT AND SWAP1 DUP4 PUSH4 0xFFFFFFFF AND MUL OR SWAP1 SSTORE POP POP CALLER PUSH1 0x1 PUSH1 0x1 PUSH1 0xA0 SHL SUB AND DUP2 PUSH4 0xFFFFFFFF AND PUSH32 0x17F586A624220AEE0C55318B6264F843066378A5C315AC5DE0C55111E1D00E98 DUP12 DUP12 PUSH1 0x40 MLOAD PUSH2 0x722 SWAP3 SWAP2 SWAP1 PUSH2 0x1A95 JUMP JUMPDEST PUSH1 0x40 MLOAD DUP1 SWAP2 SUB SWAP1 LOG3 SWAP9 SWAP8 POP POP POP POP POP POP POP POP JUMP JUMPDEST PUSH4 0xFFFFFFFF DUP1 DUP5 AND PUSH1 0x0 SWAP1 DUP2 MSTORE PUSH1 0x1 PUSH1 0x20 MSTORE PUSH1 0x40 DUP2 KECCAK256 SLOAD DUP6 SWAP3 AND SWAP1 SUB PUSH2 0x76F JUMPI PUSH1 0x40 MLOAD PUSH4 0x79DE4AF5 PUSH1 0xE0 SHL DUP2 MSTORE PUSH1 0x4 ADD PUSH1 0x40 MLOAD DUP1 SWAP2 SUB SWAP1 REVERT JUMPDEST PUSH4 0xFFFFFFFF DUP5 AND PUSH1 0x0 SWAP1 DUP2 MSTORE PUSH1 0x1 PUSH1 0x20 MSTORE PUSH1 0x40 SWAP1 KECCAK256 PUSH1 0x7 DUP2 ADD SLOAD PUSH1 0x1 PUSH1 0x1 PUSH1 0xA0 SHL SUB AND CALLER EQ PUSH2 0x7B1 JUMPI PUSH1 0x40 MLOAD PUSH4 0x6006223 PUSH1 0xE5 SHL DUP2 MSTORE PUSH1 0x4 ADD PUSH1 0x40 MLOAD DUP1 SWAP2 SUB SWAP1 REVERT JUMPDEST PUSH1 0x1 PUSH1 0x1 PUSH1 0xA0 SHL SUB DUP5 AND PUSH2 0x7D8 JUMPI PUSH1 0x40 MLOAD PUSH4 0x2F352531 PUSH1 0xE0 SHL DUP2 MSTORE PUSH1 0x4 ADD PUSH1 0x40 MLOAD DUP1 SWAP2 SUB SWAP1 REVERT JUMPDEST PUSH1 0x7 DUP2 ADD DUP1 SLOAD PUSH1 0x1 PUSH1 0x1 PUSH1 0xA0 SHL SUB DUP1 DUP8 AND PUSH1 0x1 PUSH1 0x1 PUSH1 0xA0 SHL SUB NOT SWAP1 SWAP3 AND DUP3 OR SWAP1 SWAP3 SSTORE PUSH4 0xFFFFFFFF DUP1 DUP9 AND PUSH1 0x0 DUP2 DUP2 MSTORE PUSH1 0x2 PUSH1 0x20 DUP2 DUP2 MSTORE PUSH1 0x40 DUP1 DUP5 KECCAK256 DUP2 MLOAD PUSH1 0xC0 DUP2 ADD DUP4 MSTORE SWAP6 DUP7 MSTORE CALLER DUP7 DUP5 ADD SWAP1 DUP2 MSTORE SWAP2 DUP7 ADD SWAP8 DUP9 MSTORE PUSH1 0x1 PUSH1 0x1 PUSH1 0x40 SHL SUB TIMESTAMP DUP2 AND PUSH1 0x60 DUP9 ADD SWAP1 DUP2 MSTORE PUSH1 0x80 DUP9 ADD DUP15 DUP2 MSTORE PUSH1 0x1 PUSH1 0xA0 DUP11 ADD DUP2 SWAP1 MSTORE DUP5 SLOAD DUP1 DUP3 ADD DUP7 SSTORE SWAP5 DUP10 MSTORE SWAP6 SWAP1 SWAP8 KECCAK256 DUP9 MLOAD PUSH1 0x4 SWAP1 SWAP5 MUL ADD DUP1 SLOAD SWAP5 MLOAD DUP13 AND PUSH5 0x100000000 MUL PUSH1 0x1 PUSH1 0x1 PUSH1 0xC0 SHL SUB NOT SWAP1 SWAP6 AND SWAP4 SWAP1 SWAP10 AND SWAP3 SWAP1 SWAP3 OR SWAP3 SWAP1 SWAP3 OR DUP8 SSTORE SWAP7 MLOAD SWAP2 DUP7 ADD DUP1 SLOAD SWAP8 MLOAD SWAP1 SWAP2 AND PUSH1 0x1 PUSH1 0xA0 SHL MUL PUSH1 0x1 PUSH1 0x1 PUSH1 0xE0 SHL SUB NOT SWAP1 SWAP8 AND SWAP2 SWAP1 SWAP8 AND OR SWAP5 SWAP1 SWAP5 OR SWAP1 SWAP5 SSTORE SWAP3 MLOAD SWAP1 SWAP2 DUP3 ADD SWAP1 PUSH2 0x8C5 SWAP1 DUP3 PUSH2 0x19A5 JUMP JUMPDEST POP PUSH1 0xA0 SWAP2 SWAP1 SWAP2 ADD MLOAD PUSH1 0x3 SWAP1 SWAP2 ADD DUP1 SLOAD PUSH1 0xFF NOT AND SWAP2 ISZERO ISZERO SWAP2 SWAP1 SWAP2 OR SWAP1 SSTORE PUSH1 0x40 MLOAD PUSH1 0x1 PUSH1 0x1 PUSH1 0xA0 SHL SUB DUP6 AND SWAP1 CALLER SWAP1 PUSH4 0xFFFFFFFF DUP9 AND SWAP1 PUSH32 0xFCA29A874B0AF156B8ACB6E6E54C0047653006CBFC9DBE499642BBAEE0C0C5A5 SWAP1 PUSH2 0x926 SWAP1 DUP9 SWAP1 PUSH2 0x1AC3 JUMP JUMPDEST PUSH1 0x40 MLOAD DUP1 SWAP2 SUB SWAP1 LOG4 POP POP POP POP POP JUMP JUMPDEST PUSH1 0x40 DUP1 MLOAD PUSH2 0x180 DUP2 ADD DUP3 MSTORE PUSH1 0x0 DUP1 DUP3 MSTORE PUSH1 0x60 PUSH1 0x20 DUP4 ADD DUP2 SWAP1 MSTORE SWAP3 DUP3 ADD DUP4 SWAP1 MSTORE DUP3 DUP3 ADD DUP2 SWAP1 MSTORE PUSH1 0x80 DUP3 ADD DUP4 SWAP1 MSTORE PUSH1 0xA0 DUP3 ADD DUP2 SWAP1 MSTORE PUSH1 0xC0 DUP3 ADD DUP2 SWAP1 MSTORE PUSH1 0xE0 DUP3 ADD DUP2 SWAP1 MSTORE PUSH2 0x100 DUP3 ADD SWAP3 SWAP1 SWAP3 MSTORE PUSH2 0x120 DUP2 ADD DUP3 SWAP1 MSTORE PUSH2 0x140 DUP2 ADD DUP3 SWAP1 MSTORE PUSH2 0x160 DUP2 ADD SWAP2 SWAP1 SWAP2 MSTORE PUSH4 0xFFFFFFFF DUP1 DUP4 AND PUSH1 0x0 SWAP1 DUP2 MSTORE PUSH1 0x1 PUSH1 0x20 MSTORE PUSH1 0x40 DUP2 KECCAK256 SLOAD DUP5 SWAP3 AND SWAP1 SUB PUSH2 0x9D1 JUMPI PUSH1 0x40 MLOAD PUSH4 0x79DE4AF5 PUSH1 0xE0 SHL DUP2 MSTORE PUSH1 0x4 ADD PUSH1 0x40 MLOAD DUP1 SWAP2 SUB SWAP1 REVERT JUMPDEST PUSH4 0xFFFFFFFF DUP1 DUP5 AND PUSH1 0x0 SWAP1 DUP2 MSTORE PUSH1 0x1 PUSH1 0x20 DUP2 DUP2 MSTORE PUSH1 0x40 SWAP3 DUP4 SWAP1 KECCAK256 DUP4 MLOAD PUSH2 0x180 DUP2 ADD SWAP1 SWAP5 MSTORE DUP1 SLOAD SWAP1 SWAP5 AND DUP4 MSTORE SWAP1 DUP4 ADD DUP1 SLOAD SWAP3 SWAP4 SWAP3 SWAP2 DUP5 ADD SWAP2 PUSH2 0xA11 SWAP1 PUSH2 0x1922 JUMP JUMPDEST DUP1 PUSH1 0x1F ADD PUSH1 0x20 DUP1 SWAP2 DIV MUL PUSH1 0x20 ADD PUSH1 0x40 MLOAD SWAP1 DUP2 ADD PUSH1 0x40 MSTORE DUP1 SWAP3 SWAP2 SWAP1 DUP2 DUP2 MSTORE PUSH1 0x20 ADD DUP3 DUP1 SLOAD PUSH2 0xA3D SWAP1 PUSH2 0x1922 JUMP JUMPDEST DUP1 ISZERO PUSH2 0xA8A JUMPI DUP1 PUSH1 0x1F LT PUSH2 0xA5F JUMPI PUSH2 0x100 DUP1 DUP4 SLOAD DIV MUL DUP4 MSTORE SWAP2 PUSH1 0x20 ADD SWAP2 PUSH2 0xA8A JUMP JUMPDEST DUP3 ADD SWAP2 SWAP1 PUSH1 0x0 MSTORE PUSH1 0x20 PUSH1 0x0 KECCAK256 SWAP1 JUMPDEST DUP2 SLOAD DUP2 MSTORE SWAP1 PUSH1 0x1 ADD SWAP1 PUSH1 0x20 ADD DUP1 DUP4 GT PUSH2 0xA6D JUMPI DUP3 SWAP1 SUB PUSH1 0x1F AND DUP3 ADD SWAP2 JUMPDEST POP POP POP POP POP DUP2 MSTORE PUSH1 0x20 ADD PUSH1 0x2 DUP3 ADD DUP1 SLOAD PUSH2 0xAA3 SWAP1 PUSH2 0x1922 JUMP JUMPDEST DUP1 PUSH1 0x1F ADD PUSH1 0x20 DUP1 SWAP2 DIV MUL PUSH1 0x20 ADD PUSH1 0x40 MLOAD SWAP1 DUP2 ADD PUSH1 0x40 MSTORE DUP1 SWAP3 SWAP2 SWAP1 DUP2 DUP2 MSTORE PUSH1 0x20 ADD DUP3 DUP1 SLOAD PUSH2 0xACF SWAP1 PUSH2 0x1922 JUMP JUMPDEST DUP1 ISZERO PUSH2 0xB1C JUMPI DUP1 PUSH1 0x1F LT PUSH2 0xAF1 JUMPI PUSH2 0x100 DUP1 DUP4 SLOAD DIV MUL DUP4 MSTORE SWAP2 PUSH1 0x20 ADD SWAP2 PUSH2 0xB1C JUMP JUMPDEST DUP3 ADD SWAP2 SWAP1 PUSH1 0x0 MSTORE PUSH1 0x20 PUSH1 0x0 KECCAK256 SWAP1 JUMPDEST DUP2 SLOAD DUP2 MSTORE SWAP1 PUSH1 0x1 ADD SWAP1 PUSH1 0x20 ADD DUP1 DUP4 GT PUSH2 0xAFF JUMPI DUP3 SWAP1 SUB PUSH1 0x1F AND DUP3 ADD SWAP2 JUMPDEST POP POP POP SWAP2 DUP4 MSTORE POP POP PUSH1 0x3 DUP3 ADD SLOAD PUSH1 0x1 PUSH1 0x1 PUSH1 0xA0 SHL SUB AND PUSH1 0x20 DUP3 ADD MSTORE PUSH1 0x4 DUP3 ADD DUP1 SLOAD PUSH1 0x40 SWAP1 SWAP3 ADD SWAP2 PUSH2 0xB4C SWAP1 PUSH2 0x1922 JUMP JUMPDEST DUP1 PUSH1 0x1F ADD PUSH1 0x20 DUP1 SWAP2 DIV MUL PUSH1 0x20 ADD PUSH1 0x40 MLOAD SWAP1 DUP2 ADD PUSH1 0x40 MSTORE DUP1 SWAP3 SWAP2 SWAP1 DUP2 DUP2 MSTORE PUSH1 0x20 ADD DUP3 DUP1 SLOAD PUSH2 0xB78 SWAP1 PUSH2 0x1922 JUMP JUMPDEST DUP1 ISZERO PUSH2 0xBC5 JUMPI DUP1 PUSH1 0x1F LT PUSH2 0xB9A JUMPI PUSH2 0x100 DUP1 DUP4 SLOAD DIV MUL DUP4 MSTORE SWAP2 PUSH1 0x20 ADD SWAP2 PUSH2 0xBC5 JUMP JUMPDEST DUP3 ADD SWAP2 SWAP1 PUSH1 0x0 MSTORE PUSH1 0x20 PUSH1 0x0 KECCAK256 SWAP1 JUMPDEST DUP2 SLOAD DUP2 MSTORE SWAP1 PUSH1 0x1 ADD SWAP1 PUSH1 0x20 ADD DUP1 DUP4 GT PUSH2 0xBA8 JUMPI DUP3 SWAP1 SUB PUSH1 0x1F AND DUP3 ADD SWAP2 JUMPDEST POP POP POP SWAP2 DUP4 MSTORE POP POP PUSH1 0x5 DUP3 ADD SLOAD PUSH4 0xFFFFFFFF DUP2 AND PUSH1 0x20 DUP4 ADD MSTORE PUSH1 0x1 PUSH1 0x1 PUSH1 0x40 SHL SUB PUSH5 0x100000000 DUP3 DIV DUP2 AND PUSH1 0x40 DUP5 ADD MSTORE PUSH1 0x1 PUSH1 0x60 SHL SWAP1 SWAP2 DIV AND PUSH1 0x60 DUP3 ADD MSTORE PUSH1 0x6 DUP3 ADD DUP1 SLOAD PUSH1 0x80 SWAP1 SWAP3 ADD SWAP2 PUSH2 0xC18 SWAP1 PUSH2 0x1922 JUMP JUMPDEST DUP1 PUSH1 0x1F ADD PUSH1 0x20 DUP1 SWAP2 DIV MUL PUSH1 0x20 ADD PUSH1 0x40 MLOAD SWAP1 DUP2 ADD PUSH1 0x40 MSTORE DUP1 SWAP3 SWAP2 SWAP1 DUP2 DUP2 MSTORE PUSH1 0x20 ADD DUP3 DUP1 SLOAD PUSH2 0xC44 SWAP1 PUSH2 0x1922 JUMP JUMPDEST DUP1 ISZERO PUSH2 0xC91 JUMPI DUP1 PUSH1 0x1F LT PUSH2 0xC66 JUMPI PUSH2 0x100 DUP1 DUP4 SLOAD DIV MUL DUP4 MSTORE SWAP2 PUSH1 0x20 ADD SWAP2 PUSH2 0xC91 JUMP JUMPDEST DUP3 ADD SWAP2 SWAP1 PUSH1 0x0 MSTORE PUSH1 0x20 PUSH1 0x0 KECCAK256 SWAP1 JUMPDEST DUP2 SLOAD DUP2 MSTORE SWAP1 PUSH1 0x1 ADD SWAP1 PUSH1 0x20 ADD DUP1 DUP4 GT PUSH2 0xC74 JUMPI DUP3 SWAP1 SUB PUSH1 0x1F AND DUP3 ADD SWAP2 JUMPDEST POP POP POP SWAP2 DUP4 MSTORE POP POP PUSH1 0x7 SWAP2 SWAP1 SWAP2 ADD SLOAD PUSH1 0x1 PUSH1 0x1 PUSH1 0xA0 SHL SUB DUP2 AND PUSH1 0x20 DUP4 ADD MSTORE PUSH1 0x1 PUSH1 0xA0 SHL DUP2 DIV PUSH1 0xFF AND ISZERO ISZERO PUSH1 0x40 DUP4 ADD MSTORE PUSH1 0x1 PUSH1 0xA8 SHL SWAP1 DIV PUSH1 0x1 PUSH1 0x1 PUSH1 0x40 SHL SUB AND PUSH1 0x60 SWAP1 SWAP2 ADD MSTORE SWAP2 POP JUMPDEST POP SWAP2 SWAP1 POP JUMP JUMPDEST PUSH1 0x60 PUSH1 0x0 PUSH1 0x1 JUMPDEST PUSH1 0x0 SLOAD PUSH4 0xFFFFFFFF PUSH1 0x1 PUSH1 0xA0 SHL SWAP1 SWAP2 DIV DUP2 AND SWAP1 DUP3 AND LT ISZERO PUSH2 0xD4C JUMPI PUSH4 0xFFFFFFFF DUP2 AND PUSH1 0x0 SWAP1 DUP2 MSTORE PUSH1 0x1 PUSH1 0x20 MSTORE PUSH1 0x40 SWAP1 KECCAK256 PUSH1 0x3 ADD SLOAD PUSH1 0x1 PUSH1 0x1 PUSH1 0xA0 SHL SUB DUP1 DUP7 AND SWAP2 AND SUB PUSH2 0xD3A JUMPI DUP2 PUSH2 0xD36 DUP2 PUSH2 0x1A64 JUMP JUMPDEST SWAP3 POP POP JUMPDEST DUP1 PUSH2 0xD44 DUP2 PUSH2 0x1A64 JUMP JUMPDEST SWAP2 POP POP PUSH2 0xCE6 JUMP JUMPDEST POP PUSH1 0x0 DUP2 PUSH4 0xFFFFFFFF AND PUSH1 0x1 PUSH1 0x1 PUSH1 0x40 SHL SUB DUP2 GT ISZERO PUSH2 0xD6D JUMPI PUSH2 0xD6D PUSH2 0x1403 JUMP JUMPDEST PUSH1 0x40 MLOAD SWAP1 DUP1 DUP3 MSTORE DUP1 PUSH1 0x20 MUL PUSH1 0x20 ADD DUP3 ADD PUSH1 0x40 MSTORE DUP1 ISZERO PUSH2 0xD96 JUMPI DUP2 PUSH1 0x20 ADD PUSH1 0x20 DUP3 MUL DUP1 CALLDATASIZE DUP4 CALLDATACOPY ADD SWAP1 POP JUMPDEST POP SWAP1 POP PUSH1 0x0 PUSH1 0x1 JUMPDEST PUSH1 0x0 SLOAD PUSH4 0xFFFFFFFF PUSH1 0x1 PUSH1 0xA0 SHL SWAP1 SWAP2 DIV DUP2 AND SWAP1 DUP3 AND LT ISZERO PUSH2 0xE32 JUMPI PUSH4 0xFFFFFFFF DUP2 AND PUSH1 0x0 SWAP1 DUP2 MSTORE PUSH1 0x1 PUSH1 0x20 MSTORE PUSH1 0x40 SWAP1 KECCAK256 PUSH1 0x3 ADD SLOAD PUSH1 0x1 PUSH1 0x1 PUSH1 0xA0 SHL SUB DUP1 DUP9 AND SWAP2 AND SUB PUSH2 0xE20 JUMPI DUP1 DUP4 DUP4 PUSH4 0xFFFFFFFF AND DUP2 MLOAD DUP2 LT PUSH2 0xDFD JUMPI PUSH2 0xDFD PUSH2 0x1AD6 JUMP JUMPDEST PUSH4 0xFFFFFFFF SWAP1 SWAP3 AND PUSH1 0x20 SWAP3 DUP4 MUL SWAP2 SWAP1 SWAP2 ADD SWAP1 SWAP2 ADD MSTORE DUP2 PUSH2 0xE1C DUP2 PUSH2 0x1A64 JUMP JUMPDEST SWAP3 POP POP JUMPDEST DUP1 PUSH2 0xE2A DUP2 PUSH2 0x1A64 JUMP JUMPDEST SWAP2 POP POP PUSH2 0xD9E JUMP JUMPDEST POP SWAP1 SWAP5 SWAP4 POP POP POP POP JUMP JUMPDEST PUSH1 0x0 SLOAD PUSH1 0x1 PUSH1 0x1 PUSH1 0xA0 SHL SUB AND CALLER EQ PUSH2 0xE67 JUMPI PUSH1 0x40 MLOAD PUSH4 0x5FC483C5 PUSH1 0xE0 SHL DUP2 MSTORE PUSH1 0x4 ADD PUSH1 0x40 MLOAD DUP1 SWAP2 SUB SWAP1 REVERT JUMPDEST PUSH1 0x1 PUSH1 0x1 PUSH1 0xA0 SHL SUB DUP3 AND PUSH1 0x0 DUP2 DUP2 MSTORE PUSH1 0x3 PUSH1 0x20 SWAP1 DUP2 MSTORE PUSH1 0x40 SWAP2 DUP3 SWAP1 KECCAK256 DUP1 SLOAD PUSH1 0xFF NOT AND DUP6 ISZERO ISZERO SWAP1 DUP2 OR SWAP1 SWAP2 SSTORE SWAP2 MLOAD SWAP2 DUP3 MSTORE PUSH32 0x4DE5F21892A7D012C88F5FE87D76DAD0FC48B68E82665B3AF43114F4CF12E347 SWAP2 ADD PUSH1 0x40 MLOAD DUP1 SWAP2 SUB SWAP1 LOG2 POP POP JUMP JUMPDEST PUSH1 0x1 PUSH1 0x20 DUP2 SWAP1 MSTORE PUSH1 0x0 SWAP2 DUP3 MSTORE PUSH1 0x40 SWAP1 SWAP2 KECCAK256 DUP1 SLOAD SWAP2 DUP2 ADD DUP1 SLOAD PUSH4 0xFFFFFFFF SWAP1 SWAP4 AND SWAP3 PUSH2 0xEF0 SWAP1 PUSH2 0x1922 JUMP JUMPDEST DUP1 PUSH1 0x1F ADD PUSH1 0x20 DUP1 SWAP2 DIV MUL PUSH1 0x20 ADD PUSH1 0x40 MLOAD SWAP1 DUP2 ADD PUSH1 0x40 MSTORE DUP1 SWAP3 SWAP2 SWAP1 DUP2 DUP2 MSTORE PUSH1 0x20 ADD DUP3 DUP1 SLOAD PUSH2 0xF1C SWAP1 PUSH2 0x1922 JUMP JUMPDEST DUP1 ISZERO PUSH2 0xF69 JUMPI DUP1 PUSH1 0x1F LT PUSH2 0xF3E JUMPI PUSH2 0x100 DUP1 DUP4 SLOAD DIV MUL DUP4 MSTORE SWAP2 PUSH1 0x20 ADD SWAP2 PUSH2 0xF69 JUMP JUMPDEST DUP3 ADD SWAP2 SWAP1 PUSH1 0x0 MSTORE PUSH1 0x20 PUSH1 0x0 KECCAK256 SWAP1 JUMPDEST DUP2 SLOAD DUP2 MSTORE SWAP1 PUSH1 0x1 ADD SWAP1 PUSH1 0x20 ADD DUP1 DUP4 GT PUSH2 0xF4C JUMPI DUP3 SWAP1 SUB PUSH1 0x1F AND DUP3 ADD SWAP2 JUMPDEST POP POP POP POP POP SWAP1 DUP1 PUSH1 0x2 ADD DUP1 SLOAD PUSH2 0xF7E SWAP1 PUSH2 0x1922 JUMP JUMPDEST DUP1 PUSH1 0x1F ADD PUSH1 0x20 DUP1 SWAP2 DIV MUL PUSH1 0x20 ADD PUSH1 0x40 MLOAD SWAP1 DUP2 ADD PUSH1 0x40 MSTORE DUP1 SWAP3 SWAP2 SWAP1 DUP2 DUP2 MSTORE PUSH1 0x20 ADD DUP3 DUP1 SLOAD PUSH2 0xFAA SWAP1 PUSH2 0x1922 JUMP JUMPDEST DUP1 ISZERO PUSH2 0xFF7 JUMPI DUP1 PUSH1 0x1F LT PUSH2 0xFCC JUMPI PUSH2 0x100 DUP1 DUP4 SLOAD DIV MUL DUP4 MSTORE SWAP2 PUSH1 0x20 ADD SWAP2 PUSH2 0xFF7 JUMP JUMPDEST DUP3 ADD SWAP2 SWAP1 PUSH1 0x0 MSTORE PUSH1 0x20 PUSH1 0x0 KECCAK256 SWAP1 JUMPDEST DUP2 SLOAD DUP2 MSTORE SWAP1 PUSH1 0x1 ADD SWAP1 PUSH1 0x20 ADD DUP1 DUP4 GT PUSH2 0xFDA JUMPI DUP3 SWAP1 SUB PUSH1 0x1F AND DUP3 ADD SWAP2 JUMPDEST POP POP POP PUSH1 0x3 DUP5 ADD SLOAD PUSH1 0x4 DUP6 ADD DUP1 SLOAD SWAP5 SWAP6 PUSH1 0x1 PUSH1 0x1 PUSH1 0xA0 SHL SUB SWAP1 SWAP3 AND SWAP5 SWAP2 SWAP4 POP SWAP2 POP PUSH2 0x1021 SWAP1 PUSH2 0x1922 JUMP JUMPDEST DUP1 PUSH1 0x1F ADD PUSH1 0x20 DUP1 SWAP2 DIV MUL PUSH1 0x20 ADD PUSH1 0x40 MLOAD SWAP1 DUP2 ADD PUSH1 0x40 MSTORE DUP1 SWAP3 SWAP2 SWAP1 DUP2 DUP2 MSTORE PUSH1 0x20 ADD DUP3 DUP1 SLOAD PUSH2 0x104D SWAP1 PUSH2 0x1922 JUMP JUMPDEST DUP1 ISZERO PUSH2 0x109A JUMPI DUP1 PUSH1 0x1F LT PUSH2 0x106F JUMPI PUSH2 0x100 DUP1 DUP4 SLOAD DIV MUL DUP4 MSTORE SWAP2 PUSH1 0x20 ADD SWAP2 PUSH2 0x109A JUMP JUMPDEST DUP3 ADD SWAP2 SWAP1 PUSH1 0x0 MSTORE PUSH1 0x20 PUSH1 0x0 KECCAK256 SWAP1 JUMPDEST DUP2 SLOAD DUP2 MSTORE SWAP1 PUSH1 0x1 ADD SWAP1 PUSH1 0x20 ADD DUP1 DUP4 GT PUSH2 0x107D JUMPI DUP3 SWAP1 SUB PUSH1 0x1F AND DUP3 ADD SWAP2 JUMPDEST POP POP POP PUSH1 0x5 DUP5 ADD SLOAD PUSH1 0x6 DUP6 ADD DUP1 SLOAD SWAP5 SWAP6 PUSH4 0xFFFFFFFF DUP4 AND SWAP6 PUSH1 0x1 PUSH1 0x1 PUSH1 0x40 SHL SUB PUSH5 0x100000000 DUP6 DIV DUP2 AND SWAP7 POP PUSH1 0x1 PUSH1 0x60 SHL SWAP1 SWAP5 DIV SWAP1 SWAP4 AND SWAP4 POP SWAP2 PUSH2 0x10DD SWAP1 PUSH2 0x1922 JUMP JUMPDEST DUP1 PUSH1 0x1F ADD PUSH1 0x20 DUP1 SWAP2 DIV MUL PUSH1 0x20 ADD PUSH1 0x40 MLOAD SWAP1 DUP2 ADD PUSH1 0x40 MSTORE DUP1 SWAP3 SWAP2 SWAP1 DUP2 DUP2 MSTORE PUSH1 0x20 ADD DUP3 DUP1 SLOAD PUSH2 0x1109 SWAP1 PUSH2 0x1922 JUMP JUMPDEST DUP1 ISZERO PUSH2 0x1156 JUMPI DUP1 PUSH1 0x1F LT PUSH2 0x112B JUMPI PUSH2 0x100 DUP1 DUP4 SLOAD DIV MUL DUP4 MSTORE SWAP2 PUSH1 0x20 ADD SWAP2 PUSH2 0x1156 JUMP JUMPDEST DUP3 ADD SWAP2 SWAP1 PUSH1 0x0 MSTORE PUSH1 0x20 PUSH1 0x0 KECCAK256 SWAP1 JUMPDEST DUP2 SLOAD DUP2 MSTORE SWAP1 PUSH1 0x1 ADD SWAP1 PUSH1 0x20 ADD DUP1 DUP4 GT PUSH2 0x1139 JUMPI DUP3 SWAP1 SUB PUSH1 0x1F AND DUP3 ADD SWAP2 JUMPDEST POP POP POP PUSH1 0x7 SWAP1 SWAP4 ADD SLOAD SWAP2 SWAP3 POP POP PUSH1 0x1 PUSH1 0x1 PUSH1 0xA0 SHL SUB DUP2 AND SWAP1 PUSH1 0xFF PUSH1 0x1 PUSH1 0xA0 SHL DUP3 DIV AND SWAP1 PUSH1 0x1 PUSH1 0x1 PUSH1 0x40 SHL SUB PUSH1 0x1 PUSH1 0xA8 SHL SWAP1 SWAP2 DIV AND DUP13 JUMP JUMPDEST PUSH1 0x2 PUSH1 0x20 MSTORE DUP2 PUSH1 0x0 MSTORE PUSH1 0x40 PUSH1 0x0 KECCAK256 DUP2 DUP2 SLOAD DUP2 LT PUSH2 0x11A9 JUMPI PUSH1 0x0 DUP1 REVERT JUMPDEST PUSH1 0x0 SWAP2 DUP3 MSTORE PUSH1 0x20 SWAP1 SWAP2 KECCAK256 PUSH1 0x4 SWAP1 SWAP2 MUL ADD DUP1 SLOAD PUSH1 0x1 DUP3 ADD SLOAD PUSH1 0x2 DUP4 ADD DUP1 SLOAD PUSH4 0xFFFFFFFF DUP5 AND SWAP7 POP PUSH5 0x100000000 SWAP1 SWAP4 DIV PUSH1 0x1 PUSH1 0x1 PUSH1 0xA0 SHL SUB SWAP1 DUP2 AND SWAP6 POP DUP3 AND SWAP4 PUSH1 0x1 PUSH1 0xA0 SHL SWAP1 SWAP3 DIV PUSH1 0x1 PUSH1 0x1 PUSH1 0x40 SHL SUB AND SWAP3 PUSH2 0x1203 SWAP1 PUSH2 0x1922 JUMP JUMPDEST DUP1 PUSH1 0x1F ADD PUSH1 0x20 DUP1 SWAP2 DIV MUL PUSH1 0x20 ADD PUSH1 0x40 MLOAD SWAP1 DUP2 ADD PUSH1 0x40 MSTORE DUP1 SWAP3 SWAP2 SWAP1 DUP2 DUP2 MSTORE PUSH1 0x20 ADD DUP3 DUP1 SLOAD PUSH2 0x122F SWAP1 PUSH2 0x1922 JUMP JUMPDEST DUP1 ISZERO PUSH2 0x127C JUMPI DUP1 PUSH1 0x1F LT PUSH2 0x1251 JUMPI PUSH2 0x100 DUP1 DUP4 SLOAD DIV MUL DUP4 MSTORE SWAP2 PUSH1 0x20 ADD SWAP2 PUSH2 0x127C JUMP JUMPDEST DUP3 ADD SWAP2 SWAP1 PUSH1 0x0 MSTORE PUSH1 0x20 PUSH1 0x0 KECCAK256 SWAP1 JUMPDEST DUP2 SLOAD DUP2 MSTORE SWAP1 PUSH1 0x1 ADD SWAP1 PUSH1 0x20 ADD DUP1 DUP4 GT PUSH2 0x125F JUMPI DUP3 SWAP1 SUB PUSH1 0x1F AND DUP3 ADD SWAP2 JUMPDEST POP POP POP PUSH1 0x3 SWAP1 SWAP4 ADD SLOAD SWAP2 SWAP3 POP POP PUSH1 0xFF AND DUP7 JUMP JUMPDEST DUP1 CALLDATALOAD PUSH1 0x1 PUSH1 0x1 PUSH1 0xA0 SHL SUB DUP2 AND DUP2 EQ PUSH2 0x12A6 JUMPI PUSH1 0x0 DUP1 REVERT JUMPDEST SWAP2 SWAP1 POP JUMP JUMPDEST PUSH1 0x0 PUSH1 0x20 DUP3 DUP5 SUB SLT ISZERO PUSH2 0x12BD JUMPI PUSH1 0x0 DUP1 REVERT JUMPDEST PUSH2 0x12C6 DUP3 PUSH2 0x128F JUMP JUMPDEST SWAP4 SWAP3 POP POP POP JUMP JUMPDEST DUP1 CALLDATALOAD PUSH4 0xFFFFFFFF DUP2 AND DUP2 EQ PUSH2 0x12A6 JUMPI PUSH1 0x0 DUP1 REVERT JUMPDEST PUSH1 0x0 PUSH1 0x20 DUP3 DUP5 SUB SLT ISZERO PUSH2 0x12F3 JUMPI PUSH1 0x0 DUP1 REVERT JUMPDEST PUSH2 0x12C6 DUP3 PUSH2 0x12CD JUMP JUMPDEST PUSH1 0x0 DUP2 MLOAD DUP1 DUP5 MSTORE PUSH1 0x0 JUMPDEST DUP2 DUP2 LT ISZERO PUSH2 0x1322 JUMPI PUSH1 0x20 DUP2 DUP6 ADD DUP2 ADD MLOAD DUP7 DUP4 ADD DUP3 ADD MSTORE ADD PUSH2 0x1306 JUMP JUMPDEST POP PUSH1 0x0 PUSH1 0x20 DUP3 DUP7 ADD ADD MSTORE PUSH1 0x20 PUSH1 0x1F NOT PUSH1 0x1F DUP4 ADD AND DUP6 ADD ADD SWAP2 POP POP SWAP3 SWAP2 POP POP JUMP JUMPDEST PUSH1 0x0 PUSH1 0x20 DUP1 DUP4 ADD DUP2 DUP5 MSTORE DUP1 DUP6 MLOAD DUP1 DUP4 MSTORE PUSH1 0x40 SWAP3 POP DUP3 DUP7 ADD SWAP2 POP DUP3 DUP2 PUSH1 0x5 SHL DUP8 ADD ADD DUP5 DUP9 ADD PUSH1 0x0 JUMPDEST DUP4 DUP2 LT ISZERO PUSH2 0x13F5 JUMPI DUP9 DUP4 SUB PUSH1 0x3F NOT ADD DUP6 MSTORE DUP2 MLOAD DUP1 MLOAD PUSH4 0xFFFFFFFF AND DUP5 MSTORE DUP8 DUP2 ADD MLOAD PUSH1 0x1 PUSH1 0x1 PUSH1 0xA0 SHL SUB SWAP1 DUP2 AND DUP10 DUP7 ADD MSTORE DUP8 DUP3 ADD MLOAD AND DUP8 DUP6 ADD MSTORE PUSH1 0x60 DUP1 DUP3 ADD MLOAD PUSH1 0x1 PUSH1 0x1 PUSH1 0x40 SHL SUB AND SWAP1 DUP6 ADD MSTORE PUSH1 0x80 DUP1 DUP3 ADD MLOAD PUSH1 0xC0 DUP3 DUP8 ADD DUP2 SWAP1 MSTORE SWAP2 SWAP1 PUSH2 0x13D1 DUP4 DUP9 ADD DUP3 PUSH2 0x12FC JUMP JUMPDEST PUSH1 0xA0 SWAP5 DUP6 ADD MLOAD ISZERO ISZERO SWAP8 SWAP1 SWAP5 ADD SWAP7 SWAP1 SWAP7 MSTORE POP POP SWAP5 DUP8 ADD SWAP5 SWAP3 POP SWAP1 DUP7 ADD SWAP1 PUSH1 0x1 ADD PUSH2 0x1369 JUMP JUMPDEST POP SWAP1 SWAP9 SWAP8 POP POP POP POP POP POP POP POP JUMP JUMPDEST PUSH4 0x4E487B71 PUSH1 0xE0 SHL PUSH1 0x0 MSTORE PUSH1 0x41 PUSH1 0x4 MSTORE PUSH1 0x24 PUSH1 0x0 REVERT JUMPDEST PUSH1 0x0 DUP3 PUSH1 0x1F DUP4 ADD SLT PUSH2 0x142A JUMPI PUSH1 0x0 DUP1 REVERT JUMPDEST DUP2 CALLDATALOAD PUSH1 0x1 PUSH1 0x1 PUSH1 0x40 SHL SUB DUP1 DUP3 GT ISZERO PUSH2 0x1444 JUMPI PUSH2 0x1444 PUSH2 0x1403 JUMP JUMPDEST PUSH1 0x40 MLOAD PUSH1 0x1F DUP4 ADD PUSH1 0x1F NOT SWAP1 DUP2 AND PUSH1 0x3F ADD AND DUP2 ADD SWAP1 DUP3 DUP3 GT DUP2 DUP4 LT OR ISZERO PUSH2 0x146C JUMPI PUSH2 0x146C PUSH2 0x1403 JUMP JUMPDEST DUP2 PUSH1 0x40 MSTORE DUP4 DUP2 MSTORE DUP7 PUSH1 0x20 DUP6 DUP9 ADD ADD GT ISZERO PUSH2 0x1485 JUMPI PUSH1 0x0 DUP1 REVERT JUMPDEST DUP4 PUSH1 0x20 DUP8 ADD PUSH1 0x20 DUP4 ADD CALLDATACOPY PUSH1 0x0 PUSH1 0x20 DUP6 DUP4 ADD ADD MSTORE DUP1 SWAP5 POP POP POP POP POP SWAP3 SWAP2 POP POP JUMP JUMPDEST DUP1 CALLDATALOAD PUSH1 0x1 PUSH1 0x1 PUSH1 0x40 SHL SUB DUP2 AND DUP2 EQ PUSH2 0x12A6 JUMPI PUSH1 0x0 DUP1 REVERT JUMPDEST PUSH1 0x0 DUP1 PUSH1 0x0 DUP1 PUSH1 0x0 DUP1 PUSH1 0x0 PUSH1 0xE0 DUP9 DUP11 SUB SLT ISZERO PUSH2 0x14D7 JUMPI PUSH1 0x0 DUP1 REVERT JUMPDEST DUP8 CALLDATALOAD PUSH1 0x1 PUSH1 0x1 PUSH1 0x40 SHL SUB DUP1 DUP3 GT ISZERO PUSH2 0x14EE JUMPI PUSH1 0x0 DUP1 REVERT JUMPDEST PUSH2 0x14FA DUP12 DUP4 DUP13 ADD PUSH2 0x1419 JUMP JUMPDEST SWAP9 POP PUSH1 0x20 DUP11 ADD CALLDATALOAD SWAP2 POP DUP1 DUP3 GT ISZERO PUSH2 0x1510 JUMPI PUSH1 0x0 DUP1 REVERT JUMPDEST PUSH2 0x151C DUP12 DUP4 DUP13 ADD PUSH2 0x1419 JUMP JUMPDEST SWAP8 POP PUSH1 0x40 DUP11 ADD CALLDATALOAD SWAP2 POP DUP1 DUP3 GT ISZERO PUSH2 0x1532 JUMPI PUSH1 0x0 DUP1 REVERT JUMPDEST PUSH2 0x153E DUP12 DUP4 DUP13 ADD PUSH2 0x1419 JUMP JUMPDEST SWAP7 POP PUSH2 0x154C PUSH1 0x60 DUP12 ADD PUSH2 0x12CD JUMP JUMPDEST SWAP6 POP PUSH2 0x155A PUSH1 0x80 DUP12 ADD PUSH2 0x14A5 JUMP JUMPDEST SWAP5 POP PUSH2 0x1568 PUSH1 0xA0 DUP12 ADD PUSH2 0x14A5 JUMP JUMPDEST SWAP4 POP PUSH1 0xC0 DUP11 ADD CALLDATALOAD SWAP2 POP DUP1 DUP3 GT ISZERO PUSH2 0x157E JUMPI PUSH1 0x0 DUP1 REVERT JUMPDEST POP PUSH2 0x158B DUP11 DUP3 DUP12 ADD PUSH2 0x1419 JUMP JUMPDEST SWAP2 POP POP SWAP3 SWAP6 SWAP9 SWAP2 SWAP5 SWAP8 POP SWAP3 SWAP6 POP JUMP JUMPDEST PUSH1 0x0 DUP1 PUSH1 0x0 PUSH1 0x60 DUP5 DUP7 SUB SLT ISZERO PUSH2 0x15AF JUMPI PUSH1 0x0 DUP1 REVERT JUMPDEST PUSH2 0x15B8 DUP5 PUSH2 0x12CD JUMP JUMPDEST SWAP3 POP PUSH2 0x15C6 PUSH1 0x20 DUP6 ADD PUSH2 0x128F JUMP JUMPDEST SWAP2 POP PUSH1 0x40 DUP5 ADD CALLDATALOAD PUSH1 0x1 PUSH1 0x1 PUSH1 0x40 SHL SUB DUP2 GT ISZERO PUSH2 0x15E1 JUMPI PUSH1 0x0 DUP1 REVERT JUMPDEST PUSH2 0x15ED DUP7 DUP3 DUP8 ADD PUSH2 0x1419 JUMP JUMPDEST SWAP2 POP POP SWAP3 POP SWAP3 POP SWAP3 JUMP JUMPDEST PUSH1 0x20 DUP2 MSTORE PUSH2 0x160E PUSH1 0x20 DUP3 ADD DUP4 MLOAD PUSH4 0xFFFFFFFF AND SWAP1 MSTORE JUMP JUMPDEST PUSH1 0x0 PUSH1 0x20 DUP4 ADD MLOAD PUSH2 0x180 DUP1 PUSH1 0x40 DUP6 ADD MSTORE PUSH2 0x162C PUSH2 0x1A0 DUP6 ADD DUP4 PUSH2 0x12FC JUMP JUMPDEST SWAP2 POP PUSH1 0x40 DUP6 ADD MLOAD PUSH1 0x1F NOT DUP1 DUP7 DUP6 SUB ADD PUSH1 0x60 DUP8 ADD MSTORE PUSH2 0x164A DUP5 DUP4 PUSH2 0x12FC JUMP JUMPDEST SWAP4 POP PUSH1 0x60 DUP8 ADD MLOAD SWAP2 POP PUSH2 0x1668 PUSH1 0x80 DUP8 ADD DUP4 PUSH1 0x1 PUSH1 0x1 PUSH1 0xA0 SHL SUB AND SWAP1 MSTORE JUMP JUMPDEST PUSH1 0x80 DUP8 ADD MLOAD SWAP2 POP DUP1 DUP7 DUP6 SUB ADD PUSH1 0xA0 DUP8 ADD MSTORE PUSH2 0x1683 DUP5 DUP4 PUSH2 0x12FC JUMP JUMPDEST SWAP4 POP PUSH1 0xA0 DUP8 ADD MLOAD SWAP2 POP PUSH2 0x169E PUSH1 0xC0 DUP8 ADD DUP4 PUSH4 0xFFFFFFFF AND SWAP1 MSTORE JUMP JUMPDEST PUSH1 0xC0 DUP8 ADD MLOAD PUSH1 0x1 PUSH1 0x1 PUSH1 0x40 SHL SUB DUP2 AND PUSH1 0xE0 DUP9 ADD MSTORE SWAP2 POP PUSH1 0xE0 DUP8 ADD MLOAD SWAP2 POP PUSH2 0x100 PUSH2 0x16D2 DUP2 DUP9 ADD DUP5 PUSH1 0x1 PUSH1 0x1 PUSH1 0x40 SHL SUB AND SWAP1 MSTORE JUMP JUMPDEST DUP1 DUP9 ADD MLOAD SWAP3 POP POP PUSH2 0x120 DUP2 DUP8 DUP7 SUB ADD DUP2 DUP9 ADD MSTORE PUSH2 0x16EF DUP6 DUP5 PUSH2 0x12FC JUMP JUMPDEST SWAP5 POP DUP1 DUP9 ADD MLOAD SWAP3 POP POP POP PUSH2 0x140 PUSH2 0x1710 DUP2 DUP8 ADD DUP4 PUSH1 0x1 PUSH1 0x1 PUSH1 0xA0 SHL SUB AND SWAP1 MSTORE JUMP JUMPDEST DUP7 ADD MLOAD SWAP1 POP PUSH2 0x160 PUSH2 0x1725 DUP7 DUP3 ADD DUP4 ISZERO ISZERO SWAP1 MSTORE JUMP JUMPDEST DUP7 ADD MLOAD PUSH1 0x1 PUSH1 0x1 PUSH1 0x40 SHL SUB DUP2 AND DUP4 DUP8 ADD MSTORE SWAP1 POP PUSH2 0xE32 JUMP JUMPDEST PUSH1 0x20 DUP1 DUP3 MSTORE DUP3 MLOAD DUP3 DUP3 ADD DUP2 SWAP1 MSTORE PUSH1 0x0 SWAP2 SWAP1 DUP5 DUP3 ADD SWAP1 PUSH1 0x40 DUP6 ADD SWAP1 DUP5 JUMPDEST DUP2 DUP2 LT ISZERO PUSH2 0x177B JUMPI DUP4 MLOAD PUSH4 0xFFFFFFFF AND DUP4 MSTORE SWAP3 DUP5 ADD SWAP3 SWAP2 DUP5 ADD SWAP2 PUSH1 0x1 ADD PUSH2 0x1759 JUMP JUMPDEST POP SWAP1 SWAP7 SWAP6 POP POP POP POP POP POP JUMP JUMPDEST PUSH1 0x0 DUP1 PUSH1 0x40 DUP4 DUP6 SUB SLT ISZERO PUSH2 0x179A JUMPI PUSH1 0x0 DUP1 REVERT JUMPDEST PUSH2 0x17A3 DUP4 PUSH2 0x128F JUMP JUMPDEST SWAP2 POP PUSH1 0x20 DUP4 ADD CALLDATALOAD DUP1 ISZERO ISZERO DUP2 EQ PUSH2 0x17B8 JUMPI PUSH1 0x0 DUP1 REVERT JUMPDEST DUP1 SWAP2 POP POP SWAP3 POP SWAP3 SWAP1 POP JUMP JUMPDEST PUSH1 0x0 PUSH2 0x180 PUSH4 0xFFFFFFFF DUP16 AND DUP4 MSTORE DUP1 PUSH1 0x20 DUP5 ADD MSTORE PUSH2 0x17E3 DUP2 DUP5 ADD DUP16 PUSH2 0x12FC JUMP JUMPDEST SWAP1 POP DUP3 DUP2 SUB PUSH1 0x40 DUP5 ADD MSTORE PUSH2 0x17F7 DUP2 DUP15 PUSH2 0x12FC JUMP JUMPDEST PUSH1 0x1 PUSH1 0x1 PUSH1 0xA0 SHL SUB DUP14 AND PUSH1 0x60 DUP6 ADD MSTORE DUP4 DUP2 SUB PUSH1 0x80 DUP6 ADD MSTORE SWAP1 POP PUSH2 0x181A DUP2 DUP13 PUSH2 0x12FC JUMP JUMPDEST PUSH4 0xFFFFFFFF DUP12 AND PUSH1 0xA0 DUP6 ADD MSTORE SWAP1 POP PUSH1 0x1 PUSH1 0x1 PUSH1 0x40 SHL SUB DUP10 AND PUSH1 0xC0 DUP5 ADD MSTORE PUSH1 0x1 PUSH1 0x1 PUSH1 0x40 SHL SUB DUP9 AND PUSH1 0xE0 DUP5 ADD MSTORE DUP3 DUP2 SUB PUSH2 0x100 DUP5 ADD MSTORE PUSH2 0x1859 DUP2 DUP9 PUSH2 0x12FC JUMP JUMPDEST SWAP2 POP POP PUSH2 0x1872 PUSH2 0x120 DUP4 ADD DUP7 PUSH1 0x1 PUSH1 0x1 PUSH1 0xA0 SHL SUB AND SWAP1 MSTORE JUMP JUMPDEST DUP4 ISZERO ISZERO PUSH2 0x140 DUP4 ADD MSTORE PUSH1 0x1 PUSH1 0x1 PUSH1 0x40 SHL SUB DUP4 AND PUSH2 0x160 DUP4 ADD MSTORE SWAP14 SWAP13 POP POP POP POP POP POP POP POP POP POP POP POP POP JUMP JUMPDEST PUSH1 0x0 DUP1 PUSH1 0x40 DUP4 DUP6 SUB SLT ISZERO PUSH2 0x18AF JUMPI PUSH1 0x0 DUP1 REVERT JUMPDEST PUSH2 0x18B8 DUP4 PUSH2 0x12CD JUMP JUMPDEST SWAP5 PUSH1 0x20 SWAP4 SWAP1 SWAP4 ADD CALLDATALOAD SWAP4 POP POP POP JUMP JUMPDEST PUSH4 0xFFFFFFFF DUP8 AND DUP2 MSTORE PUSH1 0x1 PUSH1 0x1 PUSH1 0xA0 SHL SUB DUP7 DUP2 AND PUSH1 0x20 DUP4 ADD MSTORE DUP6 AND PUSH1 0x40 DUP3 ADD MSTORE PUSH1 0x1 PUSH1 0x1 PUSH1 0x40 SHL SUB DUP5 AND PUSH1 0x60 DUP3 ADD MSTORE PUSH1 0xC0 PUSH1 0x80 DUP3 ADD DUP2 SWAP1 MSTORE PUSH1 0x0 SWAP1 PUSH2 0x190D SWAP1 DUP4 ADD DUP6 PUSH2 0x12FC JUMP JUMPDEST SWAP1 POP DUP3 ISZERO ISZERO PUSH1 0xA0 DUP4 ADD MSTORE SWAP8 SWAP7 POP POP POP POP POP POP POP JUMP JUMPDEST PUSH1 0x1 DUP2 DUP2 SHR SWAP1 DUP3 AND DUP1 PUSH2 0x1936 JUMPI PUSH1 0x7F DUP3 AND SWAP2 POP JUMPDEST PUSH1 0x20 DUP3 LT DUP2 SUB PUSH2 0xCD9 JUMPI PUSH4 0x4E487B71 PUSH1 0xE0 SHL PUSH1 0x0 MSTORE PUSH1 0x22 PUSH1 0x4 MSTORE PUSH1 0x24 PUSH1 0x0 REVERT JUMPDEST PUSH1 0x1F DUP3 GT ISZERO PUSH2 0x19A0 JUMPI PUSH1 0x0 DUP2 DUP2 MSTORE PUSH1 0x20 DUP2 KECCAK256 PUSH1 0x1F DUP6 ADD PUSH1 0x5 SHR DUP2 ADD PUSH1 0x20 DUP7 LT ISZERO PUSH2 0x197D JUMPI POP DUP1 JUMPDEST PUSH1 0x1F DUP6 ADD PUSH1 0x5 SHR DUP3 ADD SWAP2 POP JUMPDEST DUP2 DUP2 LT ISZERO PUSH2 0x199C JUMPI DUP3 DUP2 SSTORE PUSH1 0x1 ADD PUSH2 0x1989 JUMP JUMPDEST POP POP POP JUMPDEST POP POP POP JUMP JUMPDEST DUP2 MLOAD PUSH1 0x1 PUSH1 0x1 PUSH1 0x40 SHL SUB DUP2 GT ISZERO PUSH2 0x19BE JUMPI PUSH2 0x19BE PUSH2 0x1403 JUMP JUMPDEST PUSH2 0x19D2 DUP2 PUSH2 0x19CC DUP5 SLOAD PUSH2 0x1922 JUMP JUMPDEST DUP5 PUSH2 0x1956 JUMP JUMPDEST PUSH1 0x20 DUP1 PUSH1 0x1F DUP4 GT PUSH1 0x1 DUP2 EQ PUSH2 0x1A07 JUMPI PUSH1 0x0 DUP5 ISZERO PUSH2 0x19EF JUMPI POP DUP6 DUP4 ADD MLOAD JUMPDEST PUSH1 0x0 NOT PUSH1 0x3 DUP7 SWAP1 SHL SHR NOT AND PUSH1 0x1 DUP6 SWAP1 SHL OR DUP6 SSTORE PUSH2 0x199C JUMP JUMPDEST PUSH1 0x0 DUP6 DUP2 MSTORE PUSH1 0x20 DUP2 KECCAK256 PUSH1 0x1F NOT DUP7 AND SWAP2 JUMPDEST DUP3 DUP2 LT ISZERO PUSH2 0x1A36 JUMPI DUP9 DUP7 ADD MLOAD DUP3 SSTORE SWAP5 DUP5 ADD SWAP5 PUSH1 0x1 SWAP1 SWAP2 ADD SWAP1 DUP5 ADD PUSH2 0x1A17 JUMP JUMPDEST POP DUP6 DUP3 LT ISZERO PUSH2 0x1A54 JUMPI DUP8 DUP6 ADD MLOAD PUSH1 0x0 NOT PUSH1 0x3 DUP9 SWAP1 SHL PUSH1 0xF8 AND SHR NOT AND DUP2 SSTORE JUMPDEST POP POP POP POP POP PUSH1 0x1 SWAP1 DUP2 SHL ADD SWAP1 SSTORE POP JUMP JUMPDEST PUSH1 0x0 PUSH4 0xFFFFFFFF DUP1 DUP4 AND DUP2 DUP2 SUB PUSH2 0x1A8B JUMPI PUSH4 0x4E487B71 PUSH1 0xE0 SHL PUSH1 0x0 MSTORE PUSH1 0x11 PUSH1 0x4 MSTORE PUSH1 0x24 PUSH1 0x0 REVERT JUMPDEST PUSH1 0x1 ADD SWAP4 SWAP3 POP POP POP JUMP JUMPDEST PUSH1 0x40 DUP2 MSTORE PUSH1 0x0 PUSH2 0x1AA8 PUSH1 0x40 DUP4 ADD DUP6 PUSH2 0x12FC JUMP JUMPDEST DUP3 DUP2 SUB PUSH1 0x20 DUP5 ADD MSTORE PUSH2 0x1ABA DUP2 DUP6 PUSH2 0x12FC JUMP JUMPDEST SWAP6 SWAP5 POP POP POP POP POP JUMP JUMPDEST PUSH1 0x20 DUP2 MSTORE PUSH1 0x0 PUSH2 0x12C6 PUSH1 0x20 DUP4 ADD DUP5 PUSH2 0x12FC JUMP JUMPDEST PUSH4 0x4E487B71 PUSH1 0xE0 SHL PUSH1 0x0 MSTORE PUSH1 0x32 PUSH1 0x4 MSTORE PUSH1 0x24 PUSH1 0x0 REVERT INVALID LOG2 PUSH5 0x6970667358 0x22 SLT KECCAK256 SAR DUP15 0x5C PUSH17 0x4817651A24709F1BB9D494EFB396CD05AA MULMOD PUSH23 0xCF7EB0C9A222C2F82964736F6C63430008140033000000 "},"methodIdentifiers":{"authorizeManufacturer(address,bool)":"ade74471","authorizedManufacturers(address)":"24b04245","getNextProductId()":"468c6512","getOwner()":"893d20e8","getProductsByManufacturer(address)":"849df74a","getTransferCount(uint32)":"a8d5c45a","getTransferHistory(uint32)":"22866334","isAuthorizedManufacturer(address)":"17f87c5b","nextProductId()":"4de91a63","owner()":"8da5cb5b","productExistsCheck(uint32)":"a8b9401c","products(uint32)":"bf712fd6","registerProduct(string,string,string,uint32,uint64,uint64,string)":"478e8722","transferCustody(uint32,address,string)":"4d040f09","transferHistory(uint32,uint256)":"d078477b","verifyProduct(uint32)":"7dc260fc"}}}}}